{
  "contractName": "Mistic",
  "abi": [
    {
      "inputs": [],
      "stateMutability": "nonpayable",
      "type": "constructor"
    },
    {
      "anonymous": false,
      "inputs": [
        {
          "indexed": true,
          "internalType": "address",
          "name": "owner",
          "type": "address"
        },
        {
          "indexed": true,
          "internalType": "address",
          "name": "spender",
          "type": "address"
        },
        {
          "indexed": false,
          "internalType": "uint256",
          "name": "value",
          "type": "uint256"
        }
      ],
      "name": "Approval",
      "type": "event"
    },
    {
      "anonymous": false,
      "inputs": [
        {
          "indexed": true,
          "internalType": "address",
          "name": "from",
          "type": "address"
        },
        {
          "indexed": true,
          "internalType": "address",
          "name": "to",
          "type": "address"
        },
        {
          "indexed": false,
          "internalType": "uint256",
          "name": "value",
          "type": "uint256"
        }
      ],
      "name": "Transfer",
      "type": "event"
    },
    {
      "inputs": [],
      "name": "_initialAmount",
      "outputs": [
        {
          "internalType": "uint256",
          "name": "",
          "type": "uint256"
        }
      ],
      "stateMutability": "view",
      "type": "function",
      "constant": true
    },
    {
      "inputs": [],
      "name": "decimals",
      "outputs": [
        {
          "internalType": "uint256",
          "name": "",
          "type": "uint256"
        }
      ],
      "stateMutability": "view",
      "type": "function",
      "constant": true
    },
    {
      "inputs": [],
      "name": "name",
      "outputs": [
        {
          "internalType": "string",
          "name": "",
          "type": "string"
        }
      ],
      "stateMutability": "view",
      "type": "function",
      "constant": true
    },
    {
      "inputs": [],
      "name": "symbol",
      "outputs": [
        {
          "internalType": "string",
          "name": "",
          "type": "string"
        }
      ],
      "stateMutability": "view",
      "type": "function",
      "constant": true
    },
    {
      "inputs": [],
      "name": "totalSupply_",
      "outputs": [
        {
          "internalType": "uint256",
          "name": "",
          "type": "uint256"
        }
      ],
      "stateMutability": "view",
      "type": "function",
      "constant": true
    },
    {
      "inputs": [],
      "name": "tokenname",
      "outputs": [
        {
          "internalType": "string",
          "name": "",
          "type": "string"
        }
      ],
      "stateMutability": "view",
      "type": "function",
      "constant": true
    },
    {
      "inputs": [],
      "name": "tokensymbol",
      "outputs": [
        {
          "internalType": "string",
          "name": "",
          "type": "string"
        }
      ],
      "stateMutability": "view",
      "type": "function",
      "constant": true
    },
    {
      "inputs": [],
      "name": "totalSupply",
      "outputs": [
        {
          "internalType": "uint256",
          "name": "",
          "type": "uint256"
        }
      ],
      "stateMutability": "view",
      "type": "function",
      "constant": true
    },
    {
      "inputs": [
        {
          "internalType": "address",
          "name": "_to",
          "type": "address"
        },
        {
          "internalType": "uint256",
          "name": "_tokens",
          "type": "uint256"
        }
      ],
      "name": "transfer",
      "outputs": [
        {
          "internalType": "bool",
          "name": "success",
          "type": "bool"
        }
      ],
      "stateMutability": "nonpayable",
      "type": "function"
    },
    {
      "inputs": [
        {
          "internalType": "address",
          "name": "_from",
          "type": "address"
        },
        {
          "internalType": "address",
          "name": "__to",
          "type": "address"
        },
        {
          "internalType": "uint256",
          "name": "_token",
          "type": "uint256"
        }
      ],
      "name": "transferFrom",
      "outputs": [
        {
          "internalType": "bool",
          "name": "success",
          "type": "bool"
        }
      ],
      "stateMutability": "nonpayable",
      "type": "function"
    },
    {
      "inputs": [
        {
          "internalType": "address",
          "name": "_Owner",
          "type": "address"
        }
      ],
      "name": "balanceOf",
      "outputs": [
        {
          "internalType": "uint256",
          "name": "balance",
          "type": "uint256"
        }
      ],
      "stateMutability": "view",
      "type": "function",
      "constant": true
    },
    {
      "inputs": [
        {
          "internalType": "address",
          "name": "_spender",
          "type": "address"
        },
        {
          "internalType": "uint256",
          "name": "_value",
          "type": "uint256"
        }
      ],
      "name": "approve",
      "outputs": [
        {
          "internalType": "bool",
          "name": "success",
          "type": "bool"
        }
      ],
      "stateMutability": "nonpayable",
      "type": "function"
    },
    {
      "inputs": [
        {
          "internalType": "address",
          "name": "_tokenOwner",
          "type": "address"
        },
        {
          "internalType": "address",
          "name": "_spenderaddr",
          "type": "address"
        }
      ],
      "name": "allowance",
      "outputs": [
        {
          "internalType": "uint256",
          "name": "remaining",
          "type": "uint256"
        }
      ],
      "stateMutability": "view",
      "type": "function",
      "constant": true
    }
  ],
  "bytecode": "0x60806040526040518060400160405280600481526020017f4d49535400000000000000000000000000000000000000000000000000000000815250600290805190602001906200005192919062000111565b506040518060400160405280600481526020017f4d49535400000000000000000000000000000000000000000000000000000000815250600390805190602001906200009f92919062000111565b506012600455600454600a0a61177002600555600554600655348015620000c557600080fd5b506006546000803373ffffffffffffffffffffffffffffffffffffffff1673ffffffffffffffffffffffffffffffffffffffff16815260200190815260200160002081905550620001b7565b828054600181600116156101000203166002900490600052602060002090601f016020900481019282601f106200015457805160ff191683800117855562000185565b8280016001018555821562000185579182015b828111156200018457825182559160200191906001019062000167565b5b50905062000194919062000198565b5090565b5b80821115620001b357600081600090555060010162000199565b5090565b6110be80620001c76000396000f3fe608060405234801561001057600080fd5b50600436106100cf5760003560e01c8063324536eb1161008c57806395d89b411161006657806395d89b4114610392578063a9059cbb14610415578063dd62ed3e14610479578063fd400475146104f1576100cf565b8063324536eb1461029957806370a08231146102b75780637f8bb1aa1461030f576100cf565b806306fdde03146100d4578063095ea7b31461015757806318160ddd146101bb57806323b872dd146101d9578063273726cd1461025d578063313ce5671461027b575b600080fd5b6100dc610574565b6040518080602001828103825283818151815260200191508051906020019080838360005b8381101561011c578082015181840152602081019050610101565b50505050905090810190601f1680156101495780820380516001836020036101000a031916815260200191505b509250505060405180910390f35b6101a36004803603604081101561016d57600080fd5b81019080803573ffffffffffffffffffffffffffffffffffffffff16906020019092919080359060200190929190505050610612565b60405180821515815260200191505060405180910390f35b6101c3610704565b6040518082815260200191505060405180910390f35b610245600480360360608110156101ef57600080fd5b81019080803573ffffffffffffffffffffffffffffffffffffffff169060200190929190803573ffffffffffffffffffffffffffffffffffffffff1690602001909291908035906020019092919050505061070e565b60405180821515815260200191505060405180910390f35b610265610a31565b6040518082815260200191505060405180910390f35b610283610a37565b6040518082815260200191505060405180910390f35b6102a1610a3d565b6040518082815260200191505060405180910390f35b6102f9600480360360208110156102cd57600080fd5b81019080803573ffffffffffffffffffffffffffffffffffffffff169060200190929190505050610a43565b6040518082815260200191505060405180910390f35b610317610a8b565b6040518080602001828103825283818151815260200191508051906020019080838360005b8381101561035757808201518184015260208101905061033c565b50505050905090810190601f1680156103845780820380516001836020036101000a031916815260200191505b509250505060405180910390f35b61039a610b2d565b6040518080602001828103825283818151815260200191508051906020019080838360005b838110156103da5780820151818401526020810190506103bf565b50505050905090810190601f1680156104075780820380516001836020036101000a031916815260200191505b509250505060405180910390f35b6104616004803603604081101561042b57600080fd5b81019080803573ffffffffffffffffffffffffffffffffffffffff16906020019092919080359060200190929190505050610bcb565b60405180821515815260200191505060405180910390f35b6104db6004803603604081101561048f57600080fd5b81019080803573ffffffffffffffffffffffffffffffffffffffff169060200190929190803573ffffffffffffffffffffffffffffffffffffffff169060200190929190505050610da7565b6040518082815260200191505060405180910390f35b6104f9610e2e565b6040518080602001828103825283818151815260200191508051906020019080838360005b8381101561053957808201518184015260208101905061051e565b50505050905090810190601f1680156105665780820380516001836020036101000a031916815260200191505b509250505060405180910390f35b60028054600181600116156101000203166002900480601f01602080910402602001604051908101604052809291908181526020018280546001816001161561010002031660029004801561060a5780601f106105df5761010080835404028352916020019161060a565b820191906000526020600020905b8154815290600101906020018083116105ed57829003601f168201915b505050505081565b600081600160003373ffffffffffffffffffffffffffffffffffffffff1673ffffffffffffffffffffffffffffffffffffffff16815260200190815260200160002060008573ffffffffffffffffffffffffffffffffffffffff1673ffffffffffffffffffffffffffffffffffffffff168152602001908152602001600020819055508273ffffffffffffffffffffffffffffffffffffffff163373ffffffffffffffffffffffffffffffffffffffff167f8c5be1e5ebec7d5bd14f71427d1e84f3dd0314c0f7b2291e5b200ac8c7c3b925846040518082815260200191505060405180910390a36001905092915050565b6000600554905090565b6000816000808673ffffffffffffffffffffffffffffffffffffffff1673ffffffffffffffffffffffffffffffffffffffff1681526020019081526020016000205410156107a7576040517f08c379a00000000000000000000000000000000000000000000000000000000081526004018080602001828103825260268152602001806110636026913960400191505060405180910390fd5b6107ef6000808673ffffffffffffffffffffffffffffffffffffffff1673ffffffffffffffffffffffffffffffffffffffff1681526020019081526020016000205483610ed0565b6000808673ffffffffffffffffffffffffffffffffffffffff1673ffffffffffffffffffffffffffffffffffffffff168152602001908152602001600020819055506108796000808573ffffffffffffffffffffffffffffffffffffffff1673ffffffffffffffffffffffffffffffffffffffff1681526020019081526020016000205483610f1a565b6000808573ffffffffffffffffffffffffffffffffffffffff1673ffffffffffffffffffffffffffffffffffffffff16815260200190815260200160002081905550610941600160008673ffffffffffffffffffffffffffffffffffffffff1673ffffffffffffffffffffffffffffffffffffffff16815260200190815260200160002060003373ffffffffffffffffffffffffffffffffffffffff1673ffffffffffffffffffffffffffffffffffffffff1681526020019081526020016000205483610ed0565b600160008673ffffffffffffffffffffffffffffffffffffffff1673ffffffffffffffffffffffffffffffffffffffff16815260200190815260200160002060003373ffffffffffffffffffffffffffffffffffffffff1673ffffffffffffffffffffffffffffffffffffffff168152602001908152602001600020819055508273ffffffffffffffffffffffffffffffffffffffff168473ffffffffffffffffffffffffffffffffffffffff167fddf252ad1be2c89b69c2b068fc378daa952ba7f163c4a11628f55a4df523b3ef846040518082815260200191505060405180910390a3600190509392505050565b60065481565b60045481565b60055481565b60008060008373ffffffffffffffffffffffffffffffffffffffff1673ffffffffffffffffffffffffffffffffffffffff168152602001908152602001600020549050919050565b606060028054600181600116156101000203166002900480601f016020809104026020016040519081016040528092919081815260200182805460018160011615610100020316600290048015610b235780601f10610af857610100808354040283529160200191610b23565b820191906000526020600020905b815481529060010190602001808311610b0657829003601f168201915b5050505050905090565b60038054600181600116156101000203166002900480601f016020809104026020016040519081016040528092919081815260200182805460018160011615610100020316600290048015610bc35780601f10610b9857610100808354040283529160200191610bc3565b820191906000526020600020905b815481529060010190602001808311610ba657829003601f168201915b505050505081565b6000816000803373ffffffffffffffffffffffffffffffffffffffff1673ffffffffffffffffffffffffffffffffffffffff1681526020019081526020016000205410158015610c1b5750600082115b610c2457600080fd5b610c6c6000803373ffffffffffffffffffffffffffffffffffffffff1673ffffffffffffffffffffffffffffffffffffffff1681526020019081526020016000205483610ed0565b6000803373ffffffffffffffffffffffffffffffffffffffff1673ffffffffffffffffffffffffffffffffffffffff16815260200190815260200160002081905550610cf66000808573ffffffffffffffffffffffffffffffffffffffff1673ffffffffffffffffffffffffffffffffffffffff1681526020019081526020016000205483610f1a565b6000808573ffffffffffffffffffffffffffffffffffffffff1673ffffffffffffffffffffffffffffffffffffffff168152602001908152602001600020819055508273ffffffffffffffffffffffffffffffffffffffff163373ffffffffffffffffffffffffffffffffffffffff167fddf252ad1be2c89b69c2b068fc378daa952ba7f163c4a11628f55a4df523b3ef846040518082815260200191505060405180910390a36001905092915050565b6000600160008473ffffffffffffffffffffffffffffffffffffffff1673ffffffffffffffffffffffffffffffffffffffff16815260200190815260200160002060008373ffffffffffffffffffffffffffffffffffffffff1673ffffffffffffffffffffffffffffffffffffffff16815260200190815260200160002054905092915050565b606060038054600181600116156101000203166002900480601f016020809104026020016040519081016040528092919081815260200182805460018160011615610100020316600290048015610ec65780601f10610e9b57610100808354040283529160200191610ec6565b820191906000526020600020905b815481529060010190602001808311610ea957829003601f168201915b5050505050905090565b6000610f1283836040518060400160405280601e81526020017f536166654d6174683a207375627472616374696f6e206f766572666c6f770000815250610fa2565b905092915050565b600080828401905083811015610f98576040517f08c379a000000000000000000000000000000000000000000000000000000000815260040180806020018281038252601b8152602001807f536166654d6174683a206164646974696f6e206f766572666c6f77000000000081525060200191505060405180910390fd5b8091505092915050565b600083831115829061104f576040517f08c379a00000000000000000000000000000000000000000000000000000000081526004018080602001828103825283818151815260200191508051906020019080838360005b83811015611014578082015181840152602081019050610ff9565b50505050905090810190601f1680156110415780820380516001836020036101000a031916815260200191505b509250505060405180910390fd5b506000838503905080915050939250505056fe546865207370656e6465722073686f756c64206861766520656e6f75676820746f6b656e7320a2646970667358221220a79acf02a8c3848776ce259a28fa9f15940bf94f99a28ad90dce457251d22dc164736f6c634300060c0033",
  "immutableReferences": {},
  "source": "pragma solidity ^0.6.0;\r\n\r\nimport \"./IERC20.sol\";\r\nimport \"./SafeMath.sol\";\r\n\r\ncontract Mistic is IERC20,SafeMath\r\n{\r\n    function tokenname() public view returns (string memory) {\r\n        return name;\r\n    }\r\n    \r\n    function tokensymbol() public view returns (string memory) {\r\n        return symbol;\r\n    }\r\n    \r\n    function totalSupply() public view override returns (uint256) {\r\n        return totalSupply_;\r\n    }\r\n\r\n    function transfer(address _to, uint _tokens)public  override returns(bool success)\r\n    {\r\n            require(balances[msg.sender] >=_tokens && _tokens > 0);\r\n        \r\n            balances[msg.sender] = safeSub(balances[msg.sender],(_tokens));\r\n            balances[_to] = safeAdd(balances[_to],(_tokens));\r\n            emit  Transfer(msg.sender,_to,_tokens);\r\n            return true;\r\n    }\r\n    \r\n     function transferFrom(address _from,address __to, uint _token)public  override returns(bool success)\r\n    {\r\n            require(balances[_from] >=_token,\"The spender should have enough tokens \");\r\n            \r\n            balances[_from] = safeSub(balances[_from],(_token));\r\n            balances[__to] =  safeAdd(balances[__to],(_token));\r\n            allowed[_from][msg.sender] = safeSub(allowed[_from][msg.sender],(_token));\r\n            emit Transfer(_from,__to,_token);\r\n            return true;\r\n     }\r\n    \r\n    function balanceOf(address _Owner) public override view returns (uint256 balance) {\r\n        return balances[_Owner];\r\n    }\r\n\r\n    function approve(address _spender, uint256 _value)public override returns (bool success) {\r\n        \r\n        allowed[msg.sender][_spender] = _value;\r\n        emit Approval(msg.sender, _spender, _value);\r\n        return true;\r\n    }\r\n\r\n    function allowance(address _tokenOwner, address _spenderaddr) public override view returns (uint256 remaining) {\r\n      return allowed[_tokenOwner][_spenderaddr];\r\n     }\r\n   \r\n    mapping (address => uint256)internal balances;\r\n    mapping (address => mapping(address => uint256))allowed;\r\n    \r\n    \r\n    constructor( ) public {\r\n        balances[msg.sender] = _initialAmount;                               \r\n    }\r\n   \r\n    string public  name=\"MIST\";\r\n    string public  symbol=\"MIST\" ;\r\n    uint256 public decimals=18;\r\n    uint256 public totalSupply_= 6000 * (uint256(10) ** decimals);\r\n    uint256 public _initialAmount = totalSupply_ ;\r\n    \r\n}",
  "sourcePath": "D:/Minddeft_tasks/Remit/contracts/Mistic.sol",
  "compiler": {
    "name": "solc",
    "version": "0.6.12+commit.27d51765.Emscripten.clang"
  },
  "schemaVersion": "3.3.3",
  "updatedAt": "2021-03-17T17:09:31.929Z",
  "networkType": "ethereum",
  "devdoc": {
    "kind": "dev",
    "methods": {
      "totalSupply()": {
        "details": "Returns the amount of tokens in existence."
      }
    },
    "version": 1
  },
  "userdoc": {
    "kind": "user",
    "methods": {},
    "version": 1
  }
}