{
  "contractName": "RemitStaking",
  "abi": [
    {
      "inputs": [
        {
          "internalType": "address",
          "name": "_tokenAddress",
          "type": "address"
        }
      ],
      "stateMutability": "nonpayable",
      "type": "constructor"
    },
    {
      "anonymous": false,
      "inputs": [
        {
          "indexed": true,
          "internalType": "address",
          "name": "previousOwner",
          "type": "address"
        },
        {
          "indexed": true,
          "internalType": "address",
          "name": "newOwner",
          "type": "address"
        }
      ],
      "name": "OwnershipTransferred",
      "type": "event"
    },
    {
      "anonymous": false,
      "inputs": [
        {
          "indexed": false,
          "internalType": "address",
          "name": "holder",
          "type": "address"
        },
        {
          "indexed": false,
          "internalType": "uint256",
          "name": "amount",
          "type": "uint256"
        }
      ],
      "name": "RewardsTransferred",
      "type": "event"
    },
    {
      "inputs": [],
      "name": "acceptOwnership",
      "outputs": [],
      "stateMutability": "nonpayable",
      "type": "function"
    },
    {
      "inputs": [
        {
          "internalType": "address payable",
          "name": "_newOwner",
          "type": "address"
        }
      ],
      "name": "changeOwner",
      "outputs": [],
      "stateMutability": "nonpayable",
      "type": "function"
    },
    {
      "inputs": [],
      "name": "cliffTime",
      "outputs": [
        {
          "internalType": "uint256",
          "name": "",
          "type": "uint256"
        }
      ],
      "stateMutability": "view",
      "type": "function",
      "constant": true
    },
    {
      "inputs": [
        {
          "internalType": "address",
          "name": "",
          "type": "address"
        }
      ],
      "name": "depositedTokens",
      "outputs": [
        {
          "internalType": "uint256",
          "name": "",
          "type": "uint256"
        }
      ],
      "stateMutability": "view",
      "type": "function",
      "constant": true
    },
    {
      "inputs": [
        {
          "internalType": "address",
          "name": "",
          "type": "address"
        }
      ],
      "name": "lastClaimedTime",
      "outputs": [
        {
          "internalType": "uint256",
          "name": "",
          "type": "uint256"
        }
      ],
      "stateMutability": "view",
      "type": "function",
      "constant": true
    },
    {
      "inputs": [],
      "name": "rewardInterval",
      "outputs": [
        {
          "internalType": "uint256",
          "name": "",
          "type": "uint256"
        }
      ],
      "stateMutability": "view",
      "type": "function",
      "constant": true
    },
    {
      "inputs": [],
      "name": "rewardRate",
      "outputs": [
        {
          "internalType": "uint256",
          "name": "",
          "type": "uint256"
        }
      ],
      "stateMutability": "view",
      "type": "function",
      "constant": true
    },
    {
      "inputs": [],
      "name": "stakeRewardFeeRate",
      "outputs": [
        {
          "internalType": "uint256",
          "name": "",
          "type": "uint256"
        }
      ],
      "stateMutability": "view",
      "type": "function",
      "constant": true
    },
    {
      "inputs": [],
      "name": "stakingFeeRate",
      "outputs": [
        {
          "internalType": "uint256",
          "name": "",
          "type": "uint256"
        }
      ],
      "stateMutability": "view",
      "type": "function",
      "constant": true
    },
    {
      "inputs": [
        {
          "internalType": "address",
          "name": "",
          "type": "address"
        }
      ],
      "name": "stakingTime",
      "outputs": [
        {
          "internalType": "uint256",
          "name": "",
          "type": "uint256"
        }
      ],
      "stateMutability": "view",
      "type": "function",
      "constant": true
    },
    {
      "inputs": [],
      "name": "tokenAddress",
      "outputs": [
        {
          "internalType": "address",
          "name": "",
          "type": "address"
        }
      ],
      "stateMutability": "view",
      "type": "function",
      "constant": true
    },
    {
      "inputs": [],
      "name": "totalClaimedRewards",
      "outputs": [
        {
          "internalType": "uint256",
          "name": "",
          "type": "uint256"
        }
      ],
      "stateMutability": "view",
      "type": "function",
      "constant": true
    },
    {
      "inputs": [
        {
          "internalType": "address",
          "name": "",
          "type": "address"
        }
      ],
      "name": "totalEarnedTokens",
      "outputs": [
        {
          "internalType": "uint256",
          "name": "",
          "type": "uint256"
        }
      ],
      "stateMutability": "view",
      "type": "function",
      "constant": true
    },
    {
      "inputs": [],
      "name": "unstakingFeeRate",
      "outputs": [
        {
          "internalType": "uint256",
          "name": "",
          "type": "uint256"
        }
      ],
      "stateMutability": "view",
      "type": "function",
      "constant": true
    },
    {
      "inputs": [
        {
          "internalType": "address",
          "name": "_holder",
          "type": "address"
        }
      ],
      "name": "getPendingDivs",
      "outputs": [
        {
          "internalType": "uint256",
          "name": "",
          "type": "uint256"
        }
      ],
      "stateMutability": "view",
      "type": "function",
      "constant": true
    },
    {
      "inputs": [],
      "name": "getNumberOfHolders",
      "outputs": [
        {
          "internalType": "uint256",
          "name": "",
          "type": "uint256"
        }
      ],
      "stateMutability": "view",
      "type": "function",
      "constant": true
    },
    {
      "inputs": [
        {
          "internalType": "uint256",
          "name": "amountToStake",
          "type": "uint256"
        }
      ],
      "name": "deposit",
      "outputs": [],
      "stateMutability": "nonpayable",
      "type": "function"
    },
    {
      "inputs": [
        {
          "internalType": "uint256",
          "name": "amountToWithdraw",
          "type": "uint256"
        }
      ],
      "name": "withdraw",
      "outputs": [],
      "stateMutability": "nonpayable",
      "type": "function"
    },
    {
      "inputs": [],
      "name": "claimDivs",
      "outputs": [],
      "stateMutability": "nonpayable",
      "type": "function"
    },
    {
      "inputs": [
        {
          "internalType": "uint256",
          "name": "startIndex",
          "type": "uint256"
        },
        {
          "internalType": "uint256",
          "name": "endIndex",
          "type": "uint256"
        }
      ],
      "name": "getStakersList",
      "outputs": [
        {
          "internalType": "address[]",
          "name": "stakers",
          "type": "address[]"
        },
        {
          "internalType": "uint256[]",
          "name": "stakingTimestamps",
          "type": "uint256[]"
        },
        {
          "internalType": "uint256[]",
          "name": "lastClaimedTimeStamps",
          "type": "uint256[]"
        },
        {
          "internalType": "uint256[]",
          "name": "stakedTokens",
          "type": "uint256[]"
        }
      ],
      "stateMutability": "view",
      "type": "function",
      "constant": true
    },
    {
      "inputs": [],
      "name": "getStakingAndDaoAmount",
      "outputs": [
        {
          "internalType": "uint256",
          "name": "",
          "type": "uint256"
        }
      ],
      "stateMutability": "view",
      "type": "function",
      "constant": true
    },
    {
      "inputs": [
        {
          "internalType": "address",
          "name": "_tokenAddr",
          "type": "address"
        },
        {
          "internalType": "address",
          "name": "_to",
          "type": "address"
        },
        {
          "internalType": "uint256",
          "name": "_amount",
          "type": "uint256"
        }
      ],
      "name": "transferAnyERC20Tokens",
      "outputs": [],
      "stateMutability": "nonpayable",
      "type": "function"
    },
    {
      "inputs": [],
      "name": "showAddressToken",
      "outputs": [
        {
          "internalType": "address",
          "name": "",
          "type": "address"
        }
      ],
      "stateMutability": "view",
      "type": "function",
      "constant": true
    },
    {
      "inputs": [
        {
          "internalType": "uint256",
          "name": "_rewardRate",
          "type": "uint256"
        }
      ],
      "name": "setRewardRate",
      "outputs": [],
      "stateMutability": "nonpayable",
      "type": "function"
    },
    {
      "inputs": [],
      "name": "reduceReward",
      "outputs": [],
      "stateMutability": "nonpayable",
      "type": "function"
    }
  ],
  "bytecode": "0x6080604052611c20600355600060045534801561001b57600080fd5b506040516129b23803806129b28339818101604052602081101561003e57600080fd5b810190808051906020019092919050505080600260006101000a81548173ffffffffffffffffffffffffffffffffffffffff021916908373ffffffffffffffffffffffffffffffffffffffff16021790555050612912806100a06000396000f3fe608060405234801561001057600080fd5b50600436106101735760003560e01c80637b0a47ee116100de578063bec4de3f11610097578063d816c7d511610071578063d816c7d51461069d578063d8f4dfbd146106bb578063f3f91fa0146106d9578063ff7eb7621461073157610173565b8063bec4de3f14610609578063c326bf4f14610627578063d578ceab1461067f57610173565b80637b0a47ee146104bf57806398896d10146104dd5780639d76ea58146105355780639e447fc614610569578063a6f9dae114610597578063b6b55f25146105db57610173565b80633a593dad116101305780633a593dad1461036f578063583d42fd146103795780635ef057be146103d15780636270cd18146103ef5780636a395ccb1461044757806379ba5097146104b557610173565b80630f1a6444146101785780631911cf4a1461019657806319aa70e7146102fb578063268cab49146103055780632e1a7d4d14610323578063308feec314610351575b600080fd5b610180610765565b6040518082815260200191505060405180910390f35b6101cc600480360360408110156101ac57600080fd5b81019080803590602001909291908035906020019092919050505061076c565b6040518080602001806020018060200180602001858103855289818151815260200191508051906020019060200280838360005b8381101561021b578082015181840152602081019050610200565b50505050905001858103845288818151815260200191508051906020019060200280838360005b8381101561025d578082015181840152602081019050610242565b50505050905001858103835287818151815260200191508051906020019060200280838360005b8381101561029f578082015181840152602081019050610284565b50505050905001858103825286818151815260200191508051906020019060200280838360005b838110156102e15780820151818401526020810190506102c6565b505050509050019850505050505050505060405180910390f35b610303610a85565b005b61030d610a90565b6040518082815260200191505060405180910390f35b61034f6004803603602081101561033957600080fd5b8101908080359060200190929190505050610ad9565b005b61035961103a565b6040518082815260200191505060405180910390f35b61037761104b565b005b6103bb6004803603602081101561038f57600080fd5b81019080803573ffffffffffffffffffffffffffffffffffffffff169060200190929190505050611121565b6040518082815260200191505060405180910390f35b6103d9611139565b6040518082815260200191505060405180910390f35b6104316004803603602081101561040557600080fd5b81019080803573ffffffffffffffffffffffffffffffffffffffff16906020019092919050505061113e565b6040518082815260200191505060405180910390f35b6104b36004803603606081101561045d57600080fd5b81019080803573ffffffffffffffffffffffffffffffffffffffff169060200190929190803573ffffffffffffffffffffffffffffffffffffffff16906020019092919080359060200190929190505050611156565b005b6104bd61138d565b005b6104c7611550565b6040518082815260200191505060405180910390f35b61051f600480360360208110156104f357600080fd5b81019080803573ffffffffffffffffffffffffffffffffffffffff169060200190929190505050611556565b6040518082815260200191505060405180910390f35b61053d6116c5565b604051808273ffffffffffffffffffffffffffffffffffffffff16815260200191505060405180910390f35b6105956004803603602081101561057f57600080fd5b81019080803590602001909291905050506116eb565b005b6105d9600480360360208110156105ad57600080fd5b81019080803573ffffffffffffffffffffffffffffffffffffffff1690602001909291905050506117b6565b005b610607600480360360208110156105f157600080fd5b81019080803590602001909291905050506118f5565b005b610611611d81565b6040518082815260200191505060405180910390f35b6106696004803603602081101561063d57600080fd5b81019080803573ffffffffffffffffffffffffffffffffffffffff169060200190929190505050611d89565b6040518082815260200191505060405180910390f35b610687611da1565b6040518082815260200191505060405180910390f35b6106a5611da7565b6040518082815260200191505060405180910390f35b6106c3611dac565b6040518082815260200191505060405180910390f35b61071b600480360360208110156106ef57600080fd5b81019080803573ffffffffffffffffffffffffffffffffffffffff169060200190929190505050611db2565b6040518082815260200191505060405180910390f35b610739611dca565b604051808273ffffffffffffffffffffffffffffffffffffffff16815260200191505060405180910390f35b6203f48081565b60608060608084861061077e57600080fd5b60006107938787611df490919063ffffffff16565b905060608167ffffffffffffffff811180156107ae57600080fd5b506040519080825280602002602001820160405280156107dd5781602001602082028036833780820191505090505b50905060608267ffffffffffffffff811180156107f957600080fd5b506040519080825280602002602001820160405280156108285781602001602082028036833780820191505090505b50905060608367ffffffffffffffff8111801561084457600080fd5b506040519080825280602002602001820160405280156108735781602001602082028036833780820191505090505b50905060608467ffffffffffffffff8111801561088f57600080fd5b506040519080825280602002602001820160405280156108be5781602001602082028036833780820191505090505b50905060008b90505b8a811015610a6a5760006108e5826005611e7790919063ffffffff16565b905060006108fc8e84611df490919063ffffffff16565b90508187828151811061090b57fe5b602002602001019073ffffffffffffffffffffffffffffffffffffffff16908173ffffffffffffffffffffffffffffffffffffffff1681525050600860008373ffffffffffffffffffffffffffffffffffffffff1673ffffffffffffffffffffffffffffffffffffffff1681526020019081526020016000205486828151811061099157fe5b602002602001018181525050600960008373ffffffffffffffffffffffffffffffffffffffff1673ffffffffffffffffffffffffffffffffffffffff168152602001908152602001600020548582815181106109e957fe5b602002602001018181525050600760008373ffffffffffffffffffffffffffffffffffffffff1673ffffffffffffffffffffffffffffffffffffffff16815260200190815260200160002054848281518110610a4157fe5b6020026020010181815250505050610a63600182611e9190919063ffffffff16565b90506108c7565b50838383839850985098509850505050505092959194509250565b610a8e33611f19565b565b60006901160b2c7564b284000060045410610aae5760009050610ad6565b6000610acf6004546901160b2c7564b2840000611df490919063ffffffff16565b9050809150505b90565b80600760003373ffffffffffffffffffffffffffffffffffffffff1673ffffffffffffffffffffffffffffffffffffffff168152602001908152602001600020541015610b8e576040517f08c379a000000000000000000000000000000000000000000000000000000000815260040180806020018281038252601a8152602001807f496e76616c696420616d6f756e7420746f20776974686472617700000000000081525060200191505060405180910390fd5b6203f480610be4600860003373ffffffffffffffffffffffffffffffffffffffff1673ffffffffffffffffffffffffffffffffffffffff1681526020019081526020016000205442611df490919063ffffffff16565b11610c3a576040517f08c379a00000000000000000000000000000000000000000000000000000000081526004018080602001828103825260348152602001806128a96034913960400191505060405180910390fd5b610c4333611f19565b6000610c6d612710610c5f6032856124a290919063ffffffff16565b61252890919063ffffffff16565b90506000610c848284611df490919063ffffffff16565b9050600260009054906101000a900473ffffffffffffffffffffffffffffffffffffffff1673ffffffffffffffffffffffffffffffffffffffff1663a9059cbb60008054906101000a900473ffffffffffffffffffffffffffffffffffffffff16846040518363ffffffff1660e01b8152600401808373ffffffffffffffffffffffffffffffffffffffff16815260200182815260200192505050602060405180830381600087803b158015610d3957600080fd5b505af1158015610d4d573d6000803e3d6000fd5b505050506040513d6020811015610d6357600080fd5b8101908080519060200190929190505050610de6576040517f08c379a00000000000000000000000000000000000000000000000000000000081526004018080602001828103825260208152602001807f436f756c64206e6f74207472616e73666572207769746864726177206665652e81525060200191505060405180910390fd5b600260009054906101000a900473ffffffffffffffffffffffffffffffffffffffff1673ffffffffffffffffffffffffffffffffffffffff1663a9059cbb33836040518363ffffffff1660e01b8152600401808373ffffffffffffffffffffffffffffffffffffffff16815260200182815260200192505050602060405180830381600087803b158015610e7957600080fd5b505af1158015610e8d573d6000803e3d6000fd5b505050506040513d6020811015610ea357600080fd5b8101908080519060200190929190505050610f26576040517f08c379a000000000000000000000000000000000000000000000000000000000815260040180806020018281038252601a8152602001807f436f756c64206e6f74207472616e7366657220746f6b656e732e00000000000081525060200191505060405180910390fd5b610f7883600760003373ffffffffffffffffffffffffffffffffffffffff1673ffffffffffffffffffffffffffffffffffffffff16815260200190815260200160002054611df490919063ffffffff16565b600760003373ffffffffffffffffffffffffffffffffffffffff1673ffffffffffffffffffffffffffffffffffffffff16815260200190815260200160002081905550610fcf3360056125b190919063ffffffff16565b801561101a57506000600760003373ffffffffffffffffffffffffffffffffffffffff1673ffffffffffffffffffffffffffffffffffffffff16815260200190815260200160002054145b15611035576110333360056125e190919063ffffffff16565b505b505050565b60006110466005612611565b905090565b60008054906101000a900473ffffffffffffffffffffffffffffffffffffffff1673ffffffffffffffffffffffffffffffffffffffff163373ffffffffffffffffffffffffffffffffffffffff161461110c576040517f08c379a00000000000000000000000000000000000000000000000000000000081526004018080602001828103825260128152602001807f6f6e6c79206f776e657220616c6c6f776564000000000000000000000000000081525060200191505060405180910390fd5b60026003548161111857fe5b04600381905550565b60086020528060005260406000206000915090505481565b609681565b600a6020528060005260406000206000915090505481565b60008054906101000a900473ffffffffffffffffffffffffffffffffffffffff1673ffffffffffffffffffffffffffffffffffffffff163373ffffffffffffffffffffffffffffffffffffffff1614611217576040517f08c379a00000000000000000000000000000000000000000000000000000000081526004018080602001828103825260128152602001807f6f6e6c79206f776e657220616c6c6f776564000000000000000000000000000081525060200191505060405180910390fd5b600260009054906101000a900473ffffffffffffffffffffffffffffffffffffffff1673ffffffffffffffffffffffffffffffffffffffff168373ffffffffffffffffffffffffffffffffffffffff1614156112db576040517f08c379a000000000000000000000000000000000000000000000000000000000815260040180806020018281038252601a8152602001807f43616e6e6f74205472616e73666572204f75742052454d49542100000000000081525060200191505060405180910390fd5b8273ffffffffffffffffffffffffffffffffffffffff1663a9059cbb83836040518363ffffffff1660e01b8152600401808373ffffffffffffffffffffffffffffffffffffffff16815260200182815260200192505050602060405180830381600087803b15801561134c57600080fd5b505af1158015611360573d6000803e3d6000fd5b505050506040513d602081101561137657600080fd5b810190808051906020019092919050505050505050565b600160009054906101000a900473ffffffffffffffffffffffffffffffffffffffff1673ffffffffffffffffffffffffffffffffffffffff163373ffffffffffffffffffffffffffffffffffffffff1614611450576040517f08c379a00000000000000000000000000000000000000000000000000000000081526004018080602001828103825260168152602001807f6f6e6c79206e6577206f776e657220616c6c6f7765640000000000000000000081525060200191505060405180910390fd5b600160009054906101000a900473ffffffffffffffffffffffffffffffffffffffff1673ffffffffffffffffffffffffffffffffffffffff1660008054906101000a900473ffffffffffffffffffffffffffffffffffffffff1673ffffffffffffffffffffffffffffffffffffffff167f8be0079c531659141344cd1fd0a4f28419497f9722a3daafe3b4186f6b6457e060405160405180910390a3600160009054906101000a900473ffffffffffffffffffffffffffffffffffffffff166000806101000a81548173ffffffffffffffffffffffffffffffffffffffff021916908373ffffffffffffffffffffffffffffffffffffffff160217905550565b60035481565b600061156c8260056125b190919063ffffffff16565b61157957600090506116c0565b6000600760008473ffffffffffffffffffffffffffffffffffffffff1673ffffffffffffffffffffffffffffffffffffffff1681526020019081526020016000205414156115ca57600090506116c0565b600061161e600960008573ffffffffffffffffffffffffffffffffffffffff1673ffffffffffffffffffffffffffffffffffffffff1681526020019081526020016000205442611df490919063ffffffff16565b90506000600760008573ffffffffffffffffffffffffffffffffffffffff1673ffffffffffffffffffffffffffffffffffffffff16815260200190815260200160002054905060006116b76127106116a96301e1338061169b8761168d600354896124a290919063ffffffff16565b6124a290919063ffffffff16565b61252890919063ffffffff16565b61252890919063ffffffff16565b90508093505050505b919050565b600260009054906101000a900473ffffffffffffffffffffffffffffffffffffffff1681565b60008054906101000a900473ffffffffffffffffffffffffffffffffffffffff1673ffffffffffffffffffffffffffffffffffffffff163373ffffffffffffffffffffffffffffffffffffffff16146117ac576040517f08c379a00000000000000000000000000000000000000000000000000000000081526004018080602001828103825260128152602001807f6f6e6c79206f776e657220616c6c6f776564000000000000000000000000000081525060200191505060405180910390fd5b8060038190555050565b60008054906101000a900473ffffffffffffffffffffffffffffffffffffffff1673ffffffffffffffffffffffffffffffffffffffff163373ffffffffffffffffffffffffffffffffffffffff1614611877576040517f08c379a00000000000000000000000000000000000000000000000000000000081526004018080602001828103825260128152602001807f6f6e6c79206f776e657220616c6c6f776564000000000000000000000000000081525060200191505060405180910390fd5b600073ffffffffffffffffffffffffffffffffffffffff168173ffffffffffffffffffffffffffffffffffffffff1614156118b157600080fd5b80600160006101000a81548173ffffffffffffffffffffffffffffffffffffffff021916908373ffffffffffffffffffffffffffffffffffffffff16021790555050565b6000811161196b576040517f08c379a00000000000000000000000000000000000000000000000000000000081526004018080602001828103825260178152602001807f43616e6e6f74206465706f736974203020546f6b656e7300000000000000000081525060200191505060405180910390fd5b600260009054906101000a900473ffffffffffffffffffffffffffffffffffffffff1673ffffffffffffffffffffffffffffffffffffffff166323b872dd3330846040518463ffffffff1660e01b8152600401808473ffffffffffffffffffffffffffffffffffffffff1681526020018373ffffffffffffffffffffffffffffffffffffffff1681526020018281526020019350505050602060405180830381600087803b158015611a1c57600080fd5b505af1158015611a30573d6000803e3d6000fd5b505050506040513d6020811015611a4657600080fd5b8101908080519060200190929190505050611ac9576040517f08c379a000000000000000000000000000000000000000000000000000000000815260040180806020018281038252601c8152602001807f496e73756666696369656e7420546f6b656e20416c6c6f77616e63650000000081525060200191505060405180910390fd5b611ad233611f19565b6000611afc612710611aee6096856124a290919063ffffffff16565b61252890919063ffffffff16565b90506000611b138284611df490919063ffffffff16565b9050600260009054906101000a900473ffffffffffffffffffffffffffffffffffffffff1673ffffffffffffffffffffffffffffffffffffffff1663a9059cbb60008054906101000a900473ffffffffffffffffffffffffffffffffffffffff16846040518363ffffffff1660e01b8152600401808373ffffffffffffffffffffffffffffffffffffffff16815260200182815260200192505050602060405180830381600087803b158015611bc857600080fd5b505af1158015611bdc573d6000803e3d6000fd5b505050506040513d6020811015611bf257600080fd5b8101908080519060200190929190505050611c75576040517f08c379a000000000000000000000000000000000000000000000000000000000815260040180806020018281038252601f8152602001807f436f756c64206e6f74207472616e73666572206465706f736974206665652e0081525060200191505060405180910390fd5b611cc781600760003373ffffffffffffffffffffffffffffffffffffffff1673ffffffffffffffffffffffffffffffffffffffff16815260200190815260200160002054611e9190919063ffffffff16565b600760003373ffffffffffffffffffffffffffffffffffffffff1673ffffffffffffffffffffffffffffffffffffffff1681526020019081526020016000208190555042600860003373ffffffffffffffffffffffffffffffffffffffff1673ffffffffffffffffffffffffffffffffffffffff16815260200190815260200160002081905550611d623360056125b190919063ffffffff16565b611d7c57611d7a33600561262690919063ffffffff16565b505b505050565b6301e1338081565b60076020528060005260406000206000915090505481565b60045481565b603281565b6101f481565b60096020528060005260406000206000915090505481565b6000600260009054906101000a900473ffffffffffffffffffffffffffffffffffffffff16905090565b600082821115611e6c576040517f08c379a000000000000000000000000000000000000000000000000000000000815260040180806020018281038252601e8152602001807f536166654d6174683a207375627472616374696f6e206f766572666c6f77000081525060200191505060405180910390fd5b818303905092915050565b6000611e868360000183612656565b60001c905092915050565b600080828401905083811015611f0f576040517f08c379a000000000000000000000000000000000000000000000000000000000815260040180806020018281038252601b8152602001807f536166654d6174683a206164646974696f6e206f766572666c6f77000000000081525060200191505060405180910390fd5b8091505092915050565b6000611f2482611556565b9050600081111561245a576000611f5a612710611f4c6101f4856124a290919063ffffffff16565b61252890919063ffffffff16565b9050611f6f8183611df490919063ffffffff16565b91506000600260009054906101000a900473ffffffffffffffffffffffffffffffffffffffff1673ffffffffffffffffffffffffffffffffffffffff16638671f5a430611fc58686611e9190919063ffffffff16565b6040518363ffffffff1660e01b8152600401808373ffffffffffffffffffffffffffffffffffffffff16815260200182815260200192505050602060405180830381600087803b15801561201857600080fd5b505af115801561202c573d6000803e3d6000fd5b505050506040513d602081101561204257600080fd5b810190808051906020019092919050505090506120688284611e9190919063ffffffff16565b81146120b25780925061209a61271061208c6101f4866124a290919063ffffffff16565b61252890919063ffffffff16565b91506120af8284611df490919063ffffffff16565b92505b600260009054906101000a900473ffffffffffffffffffffffffffffffffffffffff1673ffffffffffffffffffffffffffffffffffffffff1663a9059cbb85856040518363ffffffff1660e01b8152600401808373ffffffffffffffffffffffffffffffffffffffff16815260200182815260200192505050602060405180830381600087803b15801561214557600080fd5b505af1158015612159573d6000803e3d6000fd5b505050506040513d602081101561216f57600080fd5b81019080805190602001909291905050506121f2576040517f08c379a000000000000000000000000000000000000000000000000000000000815260040180806020018281038252601a8152602001807f436f756c64206e6f74207472616e7366657220746f6b656e732e00000000000081525060200191505060405180910390fd5b600260009054906101000a900473ffffffffffffffffffffffffffffffffffffffff1673ffffffffffffffffffffffffffffffffffffffff1663a9059cbb60008054906101000a900473ffffffffffffffffffffffffffffffffffffffff16846040518363ffffffff1660e01b8152600401808373ffffffffffffffffffffffffffffffffffffffff16815260200182815260200192505050602060405180830381600087803b1580156122a557600080fd5b505af11580156122b9573d6000803e3d6000fd5b505050506040513d60208110156122cf57600080fd5b8101908080519060200190929190505050612352576040517f08c379a000000000000000000000000000000000000000000000000000000000815260040180806020018281038252601a8152602001807f436f756c64206e6f74207472616e7366657220746f6b656e732e00000000000081525060200191505060405180910390fd5b6123a483600a60008773ffffffffffffffffffffffffffffffffffffffff1673ffffffffffffffffffffffffffffffffffffffff16815260200190815260200160002054611e9190919063ffffffff16565b600a60008673ffffffffffffffffffffffffffffffffffffffff1673ffffffffffffffffffffffffffffffffffffffff168152602001908152602001600020819055506123fc83600454611e9190919063ffffffff16565b6004819055507f586b2e63a21a7a4e1402e36f48ce10cb1ec94684fea254c186b76d1f98ecf1308484604051808373ffffffffffffffffffffffffffffffffffffffff1681526020018281526020019250505060405180910390a150505b42600960008473ffffffffffffffffffffffffffffffffffffffff1673ffffffffffffffffffffffffffffffffffffffff168152602001908152602001600020819055505050565b6000808314156124b55760009050612522565b60008284029050828482816124c657fe5b041461251d576040517f08c379a00000000000000000000000000000000000000000000000000000000081526004018080602001828103825260218152602001806128886021913960400191505060405180910390fd5b809150505b92915050565b600080821161259f576040517f08c379a000000000000000000000000000000000000000000000000000000000815260040180806020018281038252601a8152602001807f536166654d6174683a206469766973696f6e206279207a65726f00000000000081525060200191505060405180910390fd5b8183816125a857fe5b04905092915050565b60006125d9836000018373ffffffffffffffffffffffffffffffffffffffff1660001b6126d9565b905092915050565b6000612609836000018373ffffffffffffffffffffffffffffffffffffffff1660001b6126fc565b905092915050565b600061261f826000016127e4565b9050919050565b600061264e836000018373ffffffffffffffffffffffffffffffffffffffff1660001b6127f5565b905092915050565b6000818360000180549050116126b7576040517f08c379a00000000000000000000000000000000000000000000000000000000081526004018080602001828103825260228152602001806128666022913960400191505060405180910390fd5b8260000182815481106126c657fe5b9060005260206000200154905092915050565b600080836001016000848152602001908152602001600020541415905092915050565b600080836001016000848152602001908152602001600020549050600081146127d8576000600182039050600060018660000180549050039050600086600001828154811061274757fe5b906000526020600020015490508087600001848154811061276457fe5b906000526020600020018190555060018301876001016000838152602001908152602001600020819055508660000180548061279c57fe5b600190038181906000526020600020016000905590558660010160008781526020019081526020016000206000905560019450505050506127de565b60009150505b92915050565b600081600001805490509050919050565b600061280183836126d9565b61285a57826000018290806001815401808255809150506001900390600052602060002001600090919091909150558260000180549050836001016000848152602001908152602001600020819055506001905061285f565b600090505b9291505056fe456e756d657261626c655365743a20696e646578206f7574206f6620626f756e6473536166654d6174683a206d756c7469706c69636174696f6e206f766572666c6f77596f7520726563656e746c79207374616b65642c20706c656173652077616974206265666f7265207769746864726177696e672ea2646970667358221220b585fbbc12359e4b206c64c7c815628c58d16e657d9bdc934292625b4459bd4f64736f6c634300060c0033",
  "immutableReferences": {},
  "source": "// SPDX-License-Identifier: MIT\r\npragma solidity 0.6.12;\r\n\r\nimport \"@openzeppelin/contracts/utils/EnumerableSet.sol\";\r\nimport \"@openzeppelin/contracts/math/SafeMath.sol\";\r\n\r\ninterface Token {\r\n    function transferFrom(address, address, uint) external returns (bool);\r\n    function transfer(address, uint) external returns (bool);\r\n    function mintStakeFarmSupply(address to,uint256 _amount) external returns(uint256);\r\n}\r\n\r\ncontract Ownable {\r\n    \r\n    modifier onlyOwner() {\r\n        require(msg.sender==owner,\"only owner allowed\");\r\n        _;\r\n    }\r\n    \r\n    event OwnershipTransferred(\r\n        address indexed previousOwner,\r\n        address indexed newOwner\r\n    );\r\n    \r\n    \r\n    address payable owner;\r\n    address payable newOwner;\r\n\r\n    function changeOwner(address payable _newOwner) public onlyOwner {\r\n        require(_newOwner!=address(0));\r\n        newOwner = _newOwner;\r\n    }\r\n    \r\n    function acceptOwnership() public {\r\n        require(msg.sender == newOwner, \"only new owner allowed\");\r\n         emit OwnershipTransferred(\r\n            owner,\r\n            newOwner\r\n        );\r\n        owner = newOwner;\r\n        \r\n    }\r\n}\r\n\r\ncontract RemitStaking is Ownable {\r\n    using SafeMath for uint;\r\n    using EnumerableSet for EnumerableSet.AddressSet;\r\n    \r\n    event RewardsTransferred(address holder, uint amount);\r\n    \r\n    // remit token contract address\r\n    address public tokenAddress;\r\n    \r\n    // reward rate 72.00% per year\r\n    uint public rewardRate = 7200;\r\n    uint public constant rewardInterval = 365 days;\r\n    \r\n    // staking fee 1.50 percent\r\n    uint public constant stakingFeeRate = 150;\r\n    \r\n    // unstaking fee 0.50 percent\r\n    uint public constant unstakingFeeRate = 50;\r\n\r\n    // reward fee 5.00 percent\r\n    uint public constant stakeRewardFeeRate = 500;\r\n    \r\n    // unstaking possible after 72 hours\r\n    uint public constant cliffTime = 72 hours;\r\n    \r\n    uint public totalClaimedRewards = 0;\r\n    \r\n    EnumerableSet.AddressSet private holders;\r\n    \r\n    mapping (address => uint) public depositedTokens;\r\n    mapping (address => uint) public stakingTime;\r\n    mapping (address => uint) public lastClaimedTime;\r\n    mapping (address => uint) public totalEarnedTokens;\r\n\r\n    constructor(\r\n      address _tokenAddress\r\n    ) public {\r\n      tokenAddress = _tokenAddress;\r\n    }\r\n    \r\n    function updateAccount(address account) private {\r\n        uint pendingDivs = getPendingDivs(account);\r\n        if (pendingDivs > 0) {\r\n            uint feeReward = pendingDivs.mul(stakeRewardFeeRate).div(1e4);\r\n            \r\n            pendingDivs = pendingDivs.sub(feeReward);\r\n            \r\n            uint256 mitedToken = Token(tokenAddress).mintStakeFarmSupply(address(this),feeReward.add(pendingDivs));\r\n            \r\n            if(mitedToken != pendingDivs.add(feeReward)){\r\n                pendingDivs = mitedToken;\r\n                feeReward = pendingDivs.mul(stakeRewardFeeRate).div(1e4);\r\n                pendingDivs = pendingDivs.sub(feeReward);\r\n            }\r\n            \r\n            require(Token(tokenAddress).transfer(account, pendingDivs), \"Could not transfer tokens.\");\r\n            require(Token(tokenAddress).transfer(owner, feeReward), \"Could not transfer tokens.\");\r\n            totalEarnedTokens[account] = totalEarnedTokens[account].add(pendingDivs);\r\n            totalClaimedRewards = totalClaimedRewards.add(pendingDivs);\r\n            emit RewardsTransferred(account, pendingDivs);\r\n        }\r\n        lastClaimedTime[account] = now;\r\n    }\r\n    \r\n    function getPendingDivs(address _holder) public view returns (uint) {\r\n        if (!holders.contains(_holder)) return 0;\r\n        if (depositedTokens[_holder] == 0) return 0;\r\n\r\n        uint timeDiff = now.sub(lastClaimedTime[_holder]);\r\n        uint stakedAmount = depositedTokens[_holder];\r\n        \r\n        uint pendingDivs = stakedAmount\r\n                            .mul(rewardRate)\r\n                            .mul(timeDiff)\r\n                            .div(rewardInterval)\r\n                            .div(1e4);\r\n            \r\n        return pendingDivs;\r\n    }\r\n    \r\n    function getNumberOfHolders() public view returns (uint) {\r\n        return holders.length();\r\n    }\r\n    \r\n    function deposit(uint amountToStake) public {\r\n        require(amountToStake > 0, \"Cannot deposit 0 Tokens\");\r\n        require(Token(tokenAddress).transferFrom(msg.sender, address(this), amountToStake), \"Insufficient Token Allowance\");\r\n        \r\n        updateAccount(msg.sender);\r\n        \r\n        uint fee = amountToStake.mul(stakingFeeRate).div(1e4);\r\n        uint amountAfterFee = amountToStake.sub(fee);\r\n        require(Token(tokenAddress).transfer(owner, fee), \"Could not transfer deposit fee.\");\r\n        \r\n        depositedTokens[msg.sender] = depositedTokens[msg.sender].add(amountAfterFee);\r\n        \r\n        stakingTime[msg.sender] = now;\r\n\r\n        if (!holders.contains(msg.sender)) {\r\n            holders.add(msg.sender);\r\n        }\r\n    }\r\n    \r\n    function withdraw(uint amountToWithdraw) public {\r\n        require(depositedTokens[msg.sender] >= amountToWithdraw, \"Invalid amount to withdraw\");\r\n        \r\n        require(now.sub(stakingTime[msg.sender]) > cliffTime, \"You recently staked, please wait before withdrawing.\");\r\n        \r\n        updateAccount(msg.sender);\r\n        \r\n        uint fee = amountToWithdraw.mul(unstakingFeeRate).div(1e4);\r\n        uint amountAfterFee = amountToWithdraw.sub(fee);\r\n        \r\n        require(Token(tokenAddress).transfer(owner, fee), \"Could not transfer withdraw fee.\");\r\n        require(Token(tokenAddress).transfer(msg.sender, amountAfterFee), \"Could not transfer tokens.\");\r\n        \r\n        depositedTokens[msg.sender] = depositedTokens[msg.sender].sub(amountToWithdraw);\r\n        \r\n        if (holders.contains(msg.sender) && depositedTokens[msg.sender] == 0) {\r\n            holders.remove(msg.sender);\r\n        }\r\n    }\r\n    \r\n    function claimDivs() public {\r\n        updateAccount(msg.sender);\r\n    }\r\n    \r\n    function getStakersList(uint startIndex, uint endIndex) \r\n        public \r\n        view \r\n        returns (address[] memory stakers, \r\n            uint[] memory stakingTimestamps, \r\n            uint[] memory lastClaimedTimeStamps,\r\n            uint[] memory stakedTokens) {\r\n        require (startIndex < endIndex);\r\n        \r\n        uint length = endIndex.sub(startIndex);\r\n        address[] memory _stakers = new address[](length);\r\n        uint[] memory _stakingTimestamps = new uint[](length);\r\n        uint[] memory _lastClaimedTimeStamps = new uint[](length);\r\n        uint[] memory _stakedTokens = new uint[](length);\r\n        \r\n        for (uint i = startIndex; i < endIndex; i = i.add(1)) {\r\n            address staker = holders.at(i);\r\n            uint listIndex = i.sub(startIndex);\r\n            _stakers[listIndex] = staker;\r\n            _stakingTimestamps[listIndex] = stakingTime[staker];\r\n            _lastClaimedTimeStamps[listIndex] = lastClaimedTime[staker];\r\n            _stakedTokens[listIndex] = depositedTokens[staker];\r\n        }\r\n        \r\n        return (_stakers, _stakingTimestamps, _lastClaimedTimeStamps, _stakedTokens);\r\n    }\r\n    \r\n    \r\n    uint private constant stakingAndDaoTokens = 5129e18;\r\n    \r\n    function getStakingAndDaoAmount() public view returns (uint) {\r\n        if (totalClaimedRewards >= stakingAndDaoTokens) {\r\n            return 0;\r\n        }\r\n        uint remaining = stakingAndDaoTokens.sub(totalClaimedRewards);\r\n        return remaining;\r\n    }\r\n    \r\n    // function to allow admin to claim *other* ERC20 tokens sent to this contract (by mistake)\r\n    // Admin cannot transfer out REMIT from this smart contract\r\n    function transferAnyERC20Tokens(address _tokenAddr, address _to, uint _amount) public onlyOwner {\r\n        require (_tokenAddr != tokenAddress, \"Cannot Transfer Out REMIT!\");\r\n        Token(_tokenAddr).transfer(_to, _amount);\r\n    }\r\n\r\n    function showAddressToken() public view returns (address) {\r\n      return tokenAddress;\r\n    }\r\n\r\n    function setRewardRate(uint _rewardRate) public onlyOwner {\r\n        rewardRate = _rewardRate;\r\n    }\r\n\r\n    function reduceReward() public onlyOwner {\r\n        rewardRate = rewardRate / 2;\r\n    }\r\n}",
  "sourcePath": "D:/Minddeft_tasks/Remit/contracts/RemitStaking.sol",
  "compiler": {
    "name": "solc",
    "version": "0.6.12+commit.27d51765.Emscripten.clang"
  },
  "schemaVersion": "3.3.3",
  "updatedAt": "2021-03-17T17:09:31.882Z",
  "networkType": "ethereum",
  "devdoc": {
    "kind": "dev",
    "methods": {},
    "version": 1
  },
  "userdoc": {
    "kind": "user",
    "methods": {},
    "version": 1
  }
}